{
    "contractName": "MarketPlace",
    "abi": [
        {
            "inputs": [],
            "stateMutability": "nonpayable",
            "type": "constructor"
        },
        {
            "anonymous": false,
            "inputs": [
                {
                    "indexed": false,
                    "internalType": "string",
                    "name": "message",
                    "type": "string"
                }
            ],
            "name": "MissionComplete",
            "type": "event"
        },
        {
            "inputs": [],
            "name": "Delivered",
            "outputs": [],
            "stateMutability": "nonpayable",
            "type": "function"
        },
        {
            "inputs": [],
            "name": "Shipped",
            "outputs": [],
            "stateMutability": "nonpayable",
            "type": "function"
        },
        {
            "inputs": [],
            "name": "Status",
            "outputs": [
                {
                    "internalType": "enum MarketPlace.ShippingStatus",
                    "name": "",
                    "type": "uint8"
                }
            ],
            "stateMutability": "payable",
            "type": "function"
        },
        {
            "inputs": [],
            "name": "costumer",
            "outputs": [
                {
                    "internalType": "string",
                    "name": "",
                    "type": "string"
                }
            ],
            "stateMutability": "view",
            "type": "function"
        },
        {
            "inputs": [],
            "name": "getStatus",
            "outputs": [
                {
                    "internalType": "enum MarketPlace.ShippingStatus",
                    "name": "",
                    "type": "uint8"
                }
            ],
            "stateMutability": "view",
            "type": "function"
        },
        {
            "inputs": [],
            "name": "owner",
            "outputs": [
                {
                    "internalType": "string",
                    "name": "",
                    "type": "string"
                }
            ],
            "stateMutability": "view",
            "type": "function"
        },
        {
            "inputs": [],
            "name": "status",
            "outputs": [
                {
                    "internalType": "enum MarketPlace.ShippingStatus",
                    "name": "",
                    "type": "uint8"
                }
            ],
            "stateMutability": "view",
            "type": "function"
        }
    ],
    "bytecode": "60c0604052600560809081526437bbb732b960d91b60a052600190610024908261010d565b5060408051808201909152600881526731b7b9ba3ab6b2b960c11b6020820152600290610051908261010d565b5034801561005e57600080fd5b506000805460ff191690556101cc565b634e487b7160e01b600052604160045260246000fd5b600181811c9082168061009857607f821691505b6020821081036100b857634e487b7160e01b600052602260045260246000fd5b50919050565b601f82111561010857600081815260208120601f850160051c810160208610156100e55750805b601f850160051c820191505b81811015610104578281556001016100f1565b5050505b505050565b81516001600160401b038111156101265761012661006e565b61013a816101348454610084565b846100be565b602080601f83116001811461016f57600084156101575750858301515b600019600386901b1c1916600185901b178555610104565b600085815260208120601f198616915b8281101561019e5788860151825594840194600190910190840161017f565b50858210156101bc5787850151600019600388901b60f8161c191681555b5050505050600190811b01905550565b610398806101db6000396000f3fe6080604052600436106100705760003560e01c8063779822f71161004e578063779822f7146100c55780637e59301e146100dc57806381a4a5f9146100fb5780638da5cb5b1461011d57600080fd5b8063200d2ed21461007557806345f09ce9146100a55780634e69d560146100ad575b600080fd5b34801561008157600080fd5b5060005461008f9060ff1681565b60405161009c91906102b2565b60405180910390f35b61008f610132565b3480156100b957600080fd5b5060005460ff1661008f565b3480156100d157600080fd5b506100da6101a7565b005b3480156100e857600080fd5b506100da6000805460ff19166001179055565b34801561010757600080fd5b50610110610217565b60405161009c91906102da565b34801561012957600080fd5b506101106102a5565b600034670de0b6b3a76400001461019d5760405162461bcd60e51b815260206004820152602560248201527f506c6561736520706179203120657468657220746f206765742074686520737460448201526430ba3ab99760d91b606482015260840160405180910390fd5b5060005460ff1690565b6000805460ff19166002179055604080516020808252601a908201527f5061636b61676520686173206265656e2064656c6976657265640000000000008183015290517f4509f6ddf88097ad91f0d703ce7d21a7970fe2e7c594571463fd6f53f2cb25b2916060908290030190a1565b6002805461022490610328565b80601f016020809104026020016040519081016040528092919081815260200182805461025090610328565b801561029d5780601f106102725761010080835404028352916020019161029d565b820191906000526020600020905b81548152906001019060200180831161028057829003601f168201915b505050505081565b6001805461022490610328565b60208101600383106102d457634e487b7160e01b600052602160045260246000fd5b91905290565b600060208083528351808285015260005b81811015610307578581018301518582016040015282016102eb565b506000604082860101526040601f19601f8301168501019250505092915050565b600181811c9082168061033c57607f821691505b60208210810361035c57634e487b7160e01b600052602260045260246000fd5b5091905056fea26469706673582212200dae4419049548fbfef22b1a77701499b3b555e0f4426fb7ae72b8d617982d7e64736f6c63430008130033",
    "sourcePath": "c:/Users/achre/OneDrive/Bureau/Smart Contract/MarketPlace.sol",
    "compiler": {
        "name": "solc",
        "version": "0.8.19+commit.7dd6d404"
    },
    "functionHashes": {
        "Delivered()": "779822f7",
        "Shipped()": "7e59301e",
        "Status()": "45f09ce9",
        "costumer()": "81a4a5f9",
        "getStatus()": "4e69d560",
        "owner()": "8da5cb5b",
        "status()": "200d2ed2"
    },
    "gasEstimates": {
        "creation": {
            "codeDepositCost": "184000",
            "executionCost": "infinite",
            "totalCost": "infinite"
        },
        "external": {
            "Delivered()": "25982",
            "Shipped()": "24378",
            "Status()": "2386",
            "costumer()": "infinite",
            "getStatus()": "2390",
            "owner()": "infinite",
            "status()": "2352"
        }
    }
}